:020000000123DA
:020001000003FA
:020002000143B8
:0200030000A358
:020004000153A6
:020005000133C5
:0200060000A850
:0200070001787E
:0200080001787D
:0200090001787C
:02000A0001787B
:02000B0001787A
:02000C00017879
:02000D00017878
:02000E00017877
:02000F000017D8
:020010000000EE
:020011000000ED
:020012000000EC
:020013000000EB
:020014000000EA
:020015000000E9
:020016000000E8
:020017000000E7
:020018000000E6
:020019000000E5
:02001A000000E4
:02001B000000E3
:02001C000000E2
:02001D000000E1
:02001E000000E0
:02001F000000DF
:020020000138A5
:0200210000F9E4
:02002200008953
:02002300001AC1
:02002400008A50
:02002500003A9F
:02002600005A7E
:0200270001FADC
:0200280001FADB
:0200290001FBD9
:02002A00019B38
:02002B0000EBE8
:02002C00013B96
:02002D0000AC25
:02002E0001AC23
:02002F00017A54
:020030000000CE
:020031000000CD
:020032000000CC
:020033000000CB
:020034000000CA
:020035000000C9
:020036000000C8
:020037000000C7
:020038000000C6
:020039000000C5
:02003A000000C4
:02003B000000C3
:02003C000000C2
:02003D000000C1
:02003E000000C0
:02003F000000BF
:0200400000AC12
:02004100013C80
:02004200013C7F
:02004300013C7E
:02004400013C7D
:0200450000ECCD
:0200460000EDCB
:02004700015D59
:02004800015D58
:02004900015D57
:02004A00009D17
:02004B00009D16
:02004C00001D95
:02004D00013D73
:02004E00013D72
:02004F0001139B
:020050000000AE
:020051000000AD
:020052000000AC
:020053000000AB
:020054000000AA
:020055000000A9
:020056000000A8
:020057000000A7
:020058000000A6
:020059000000A5
:02005A000000A4
:02005B000000A3
:02005C000000A2
:02005D000000A1
:02005E000000A0
:02005F0000009F
:02006000013D60
:02006100019DFF
:02006200019DFE
:02006300011D7D
:02006400011D7C
:02006500004D4C
:02006600013D5A
:02006700001E79
:02006800015E37
:0200690000DEB7
:02006A0000DEB6
:02006B0001EEA4
:02006C0001EEA3
:02006D00013E52
:02006E00007E12
:02006F00002867
:0200700000008E
:0200710000008D
:0200720000008C
:0200730000008B
:0200740000008A
:02007500000089
:02007600000088
:02007700000087
:02007800000086
:02007900000085
:02007A00000084
:02007B00000083
:02007C00000082
:02007D00000081
:02007E00000080
:02007F0000007F
:02008000008EF0
:02008100008EEF
:02008200008EEE
:0200830001EE8C
:0200840001EE8B
:02008500004E2B
:02008600004E2A
:0200870001EE88
:02008800004E28
:02008900004E27
:02008A0001EE85
:02008B00016F03
:02008C00009FD3
:02008D0000AFC2
:02008E00005F11
:02008F0001204E
:0200900000006E
:0200910000006D
:0200920000006C
:0200930000006B
:0200940000006A
:02009500000069
:02009600000068
:02009700000067
:02009800000066
:02009900000065
:02009A00000064
:02009B00000063
:02009C00000062
:02009D00000061
:02009E00000060
:02009F0000005F
:0200A000007FDF
:0200A100019FBD
:0200A200019FBC
:0200A300019FBB
:0200A400019FBA
:0200A500019FB9
:0200A600019FB8
:0200A700019FB7
:0200A800019FB6
:0200A900019FB5
:0200AA00019FB4
:0200AB00019FB3
:0200AC00019FB2
:0200AD00005FF2
:0200AE00005FF1
:0200AF00011935
:0200B00000004E
:0200B10000004D
:0200B20000004C
:0200B30000004B
:0200B40000004A
:0200B500000049
:0200B600000048
:0200B700000047
:0200B800000046
:0200B900000045
:0200BA00000044
:0200BB00000043
:0200BC00000042
:0200BD00000041
:0200BE00000040
:0200BF0000003F
:0200C000019F9E
:0200C100007FBE
:0200C200007FBD
:0200C300005FDC
:0200C400005FDB
:0200C500009F9A
:0200C600009E9A
:0200C70001EE48
:0200C80001EE47
:0200C90001EE46
:0200CA00010E25
:0200CB00010E24
:0200CC00010E23
:0200CD0001EE42
:0200CE0001EE41
:0200CF0001042A
:0200D00000002E
:0200D10000002D
:0200D20000002C
:0200D30000002B
:0200D40000002A
:0200D500000029
:0200D600000028
:0200D700000027
:0200D800000026
:0200D900000025
:0200DA00000024
:0200DB00000023
:0200DC00000022
:0200DD00000021
:0200DE00000020
:0200DF0000001F
:0200E000004ED0
:0200E10001EE2E
:0200E200016EAD
:0200E300016EAC
:0200E400016EAB
:0200E50000FE1B
:0200E60000FE1A
:0200E700016EA8
:0200E80001DE37
:0200E90001EE26
:0200EA00004EC6
:0200EB00004EC5
:0200EC00004EC4
:0200ED0001EE22
:0200EE0001EE21
:0200EF000030DF
:0200F00000000E
:0200F10000000D
:0200F20000000C
:0200F30000000B
:0200F40000000A
:0200F500000009
:0200F600000008
:0200F700000007
:0200F800000006
:0200F900000005
:0200FA00000004
:0200FB00000003
:0200FC00000002
:0200FD00000001
:0200FE00000000
:0200FF000000FF
:0201000001EE0E
:02010100004EAE
:02010200004EAD
:0201030001EE0B
:02010400004EAB
:0201050001EE09
:0201060001EE08
:02010700010EE7
:02010800010EE6
:0201090001EE05
:02010A0001EE04
:02010B00008E64
:02010C00013DB3
:02010D0001ED02
:02010E00001DD2
:02010F0001D518
:020110000000ED
:020111000000EC
:020112000000EB
:020113000000EA
:020114000000E9
:020115000000E8
:020116000000E7
:020117000000E6
:020118000000E5
:020119000000E4
:02011A000000E3
:02011B000000E2
:02011C000000E1
:02011D000000E0
:02011E000000DF
:02011F000000DE
:02012000007C61
:0201210000FCE0
:0201220000FCDF
:02012300012CAD
:0201240000ECED
:02012500008C4C
:02012600019C3A
:02012700019C39
:0201280001AC28
:0201290001AC27
:02012A0001ECE6
:02012B0001ECE5
:02012C00009C35
:02012D00009C34
:02012E00004C83
:02012F0001AE1F
:020130000000CD
:020131000000CC
:020132000000CB
:020133000000CA
:020134000000C9
:020135000000C8
:020136000000C7
:020137000000C6
:020138000000C5
:020139000000C4
:02013A000000C3
:02013B000000C2
:02013C000000C1
:02013D000000C0
:02013E000000BF
:02013F000000BE
:0201400000ECD1
:02014100003D7F
:02014200003D7E
:0201430001CDEC
:02014400015D5B
:02014500015D5A
:0201460001DDD9
:02014700015D58
:02014800004D68
:0201490001DDD6
:02014A0001DDD5
:02014B0001DDD4
:02014C0001DDD3
:02014D0001DDD2
:02014E0001DCD2
:02014F0001AEFF
:020150000000AD
:020151000000AC
:020152000000AB
:020153000000AA
:020154000000A9
:020155000000A8
:020156000000A7
:020157000000A6
:020158000000A5
:020159000000A4
:02015A000000A3
:02015B000000A2
:02015C000000A1
:02015D000000A0
:02015E0000009F
:02015F0000009E
:0201600001ACF0
:0201610001ACEF
:02016200008D0E
:0201630001DDBC
:0201640001DDBB
:02016500015D3A
:0201660001DDB9
:02016700003C5A
:02016800006C29
:02016900009CF8
:02016A00009CF7
:02016B0001ECA5
:02016C0001ECA4
:02016D0001ECA3
:02016E0001ECA2
:02016F0000FE90
:0201700000008D
:0201710000008C
:0201720000008B
:0201730000008A
:02017400000089
:02017500000088
:02017600000087
:02017700000086
:02017800000085
:02017900000084
:02017A00000083
:02017B00000082
:02017C00000081
:02017D00000080
:02017E0000007F
:02017F0000007E
:0201800001EC90
:0201810001EC8F
:0201820000ACCF
:02018300004C2E
:0201840000ED8C
:02018500003C3C
:0201860000EC8B
:02018700008CEA
:0201880000EC89
:02018900019CD7
:02018A0000ED86
:02018B00003D35
:02018C00003C35
:02018D0001ACC3
:02018E0001ACC2
:02018F0001AEBF
:0201900000006D
:0201910000006C
:0201920000006B
:0201930000006A
:02019400000069
:02019500000068
:02019600000067
:02019700000066
:02019800000065
:02019900000064
:02019A00000063
:02019B00000062
:02019C00000061
:02019D00000060
:02019E0000005F
:02019F0000005E
:0201A000017DDF
:0201A100009DBF
:0201A200001D3E
:0201A30000FD5D
:0201A400009EBB
:0201A500013E19
:0201A600008EC9
:0201A70001EE67
:0201A800010E46
:0201A90001EE65
:0201AA0001EE64
:0201AB0001CE83
:0201AC00003E13
:0201AD0001CE81
:0201AE00013E10
:0201AF000153FA
:0201B00000004D
:0201B10000004C
:0201B20000004B
:0201B30000004A
:0201B400000049
:0201B500000048
:0201B600000047
:0201B700000046
:0201B800000045
:0201B900000044
:0201BA00000043
:0201BB00000042
:0201BC00000041
:0201BD00000040
:0201BE0000003F
:0201BF0000003E
:0201C00001DE5E
:0201C100019E9D
:0201C20001DE5C
:0201C300007EBC
:0201C400013DFB
:0201C50001AD8A
:0201C60001AD89
:0201C700019D98
:0201C800011D17
:0201C90001DD56
:0201CA0001DD55
:0201CB0001DD54
:0201CC00009D94
:0201CD0001DE51
:0201CE00016DC1
:0201CF0000A886
:0201D00000002D
:0201D10000002C
:0201D20000002B
:0201D30000002A
:0201D400000029
:0201D500000028
:0201D600000027
:0201D700000026
:0201D800000025
:0201D900000024
:0201DA00000023
:0201DB00000022
:0201DC00000021
:0201DD00000020
:0201DE0000001F
:0201DF0000001E
:0201E00000DD40
:0201E100003DDF
:0201E200004DCE
:0201E300004CCE
:0201E400008C8D
:0201E50000ED2B
:0201E600003CDB
:0201E70000ED29
:0201E80001DD37
:0201E90001DC37
:0201EA0000EC27
:0201EB00007C96
:0201EC00007C95
:0201ED00002CE4
:0201EE0000AC63
:0201EF0001AA63
:0201F00000000D
:0201F10000000C
:0201F20000000B
:0201F30000000A
:0201F400000009
:0201F500000008
:0201F600000007
:0201F700000006
:0201F800000005
:0201F900000004
:0201FA00000003
:0201FB00000002
:0201FC00000001
:0201FD00000000
:0201FE000000FF
:0201FF000000FE
:02020000002CD0
:0202010001AC4E
:0202020001AC4D
:0202030001AC4C
:0202040001AC4B
:0202050000FDFA
:02020600004DA9
:02020700009D58
:0202080001AD46
:0202090001AD45
:02020A00002DC5
:02020B00002DC4
:02020C00002EC2
:02020D00005E91
:02020E00007E70
:02020F00019E4E
:020210000000EC
:020211000000EB
:020212000000EA
:020213000000E9
:020214000000E8
:020215000000E7
:020216000000E6
:020217000000E5
:020218000000E4
:020219000000E3
:02021A000000E2
:02021B000000E1
:02021C000000E0
:02021D000000DF
:02021E000000DE
:02021F000000DD
:02022000004D8F
:0202210001FDDD
:02022200004C8E
:02022300003C9D
:0202240000ECEC
:0202250000EDEA
:02022600003C9A
:0202270000ECE9
:0202280000ECE8
:0202290000ECE7
:02022A0000ECE6
:02022B00008C45
:02022C00003C94
:02022D0001AC22
:02022E00002CA2
:02022F000124A8
:020230000000CC
:020231000000CB
:020232000000CA
:020233000000C9
:020234000000C8
:020235000000C7
:020236000000C6
:020237000000C5
:020238000000C4
:020239000000C3
:02023A000000C2
:02023B000000C1
:02023C000000C0
:02023D000000BF
:02023E000000BE
:02023F000000BD
:02024000009C20
:02024100009C1F
:0202420001EBCE
:02024300014B6D
:0202440000FBBD
:0202450001AB0B
:0202460000EBCB
:0202470001CBE9
:02024800011B98
:02024900011A98
:02024A00005A58
:02024B0000FAB7
:02024C0001CAE5
:02024D00008A25
:02024E00008925
:02024F00011D8F
:020250000000AC
:020251000000AB
:020252000000AA
:020253000000A9
:020254000000A8
:020255000000A7
:020256000000A6
:020257000000A5
:020258000000A4
:020259000000A3
:02025A000000A2
:02025B000000A1
:02025C000000A0
:02025D0000009F
:02025E0000009E
:02025F0000009D
:0202600001D9C2
:02026100016931
:02026200016930
:0202630001D9BF
:0202640001D9BE
:0202650000197E
:0202660000197D
:0202670000197C
:0202680000197B
:0202690000197A
:02026A00001979
:02026B00001978
:02026C00001977
:02026D00001976
:02026E00001975
:02026F0001018B
:0202700000008C
:0202710000008B
:0202720000008A
:02027300000089
:02027400000088
:02027500000087
:02027600000086
:02027700000085
:02027800000084
:02027900000083
:02027A00000082
:02027B00000081
:02027C00000080
:02027D0000007F
:02027E0000007E
:02027F0000007D
:02028000001963
:0202810001E991
:0202820001E990
:0202830001E98F
:0202840001E98E
:0202850001E98D
:0202860001E88D
:020287000178FC
:020288000178FB
:020289000178FA
:02028A000178F9
:02028B000178F8
:02028C000178F7
:02028D000178F6
:02028E000178F5
:02028F00001756
:0202900000006C
:0202910000006B
:0202920000006A
:02029300000069
:02029400000068
:02029500000067
:02029600000066
:02029700000065
:02029800000064
:02029900000063
:02029A00000062
:02029B00000061
:02029C00000060
:02029D0000005F
:02029E0000005E
:02029F0000005D
:0202A000013823
:0202A100013822
:0202A200014910
:0202A3000179DF
:0202A4000169EE
:0202A500016AEC
:0202A600003A1C
:0202A700005AFB
:0202A80001FB58
:0202A900004B08
:0202AA0001ABA6
:0202AB0001ABA5
:0202AC0000ABA5
:0202AD0000EC63
:0202AE0001ACA1
:0202AF00017AD2
:0202B00000004C
:0202B10000004B
:0202B20000004A
:0202B300000049
:0202B400000048
:0202B500000047
:0202B600000046
:0202B700000045
:0202B800000044
:0202B900000043
:0202BA00000042
:0202BB00000041
:0202BC00000040
:0202BD0000003F
:0202BE0000003E
:0202BF0000003D
:0202C00000AC90
:0202C100013CFE
:0202C200013CFD
:0202C30000FC3D
:0202C400014CEB
:0202C500013CFA
:0202C60000CC6A
:0202C700013CF8
:0202C800019C97
:0202C90000AC87
:0202CA0000AD85
:0202CB00015DD3
:0202CC00009D93
:0202CD0001FD31
:0202CE00003DF1
:0202CF00014FDD
:0202D00000002C
:0202D10000002B
:0202D20000002A
:0202D300000029
:0202D400000028
:0202D500000027
:0202D600000026
:0202D700000025
:0202D800000024
:0202D900000023
:0202DA00000022
:0202DB00000021
:0202DC00000020
:0202DD0000001F
:0202DE0000001E
:0202DF0000001D
:0202E00001DD3E
:0202E100013DDD
:0202E200013DDC
:0202E30001FD1B
:0202E40001FD1A
:0202E500019D79
:0202E600013DD8
:0202E700004DC8
:0202E800001EF6
:0202E90001EE24
:0202EA0001EE23
:0202EB00013ED2
:0202EC00013ED1
:0202ED00005EB1
:0202EE00005EB0
:0202EF0000D33A
:0202F00000000C
:0202F10000000B
:0202F20000000A
:0202F300000009
:0202F400000008
:0202F500000007
:0202F600000006
:0202F700000005
:0202F800000004
:0202F900000003
:0202FA00000002
:0202FB00000001
:0202FC00000000
:0202FD000000FF
:0202FE000000FE
:0202FF000000FD
:02030000019E5C
:02030100007E7C
:02030200019E5A
:02030300008E6A
:0203040001EE08
:0203050001EE07
:0203060001EE06
:02030700010EE5
:0203080001EE04
:0203090001EE03
:02030A00004EA3
:02030B0001EF00
:02030C0001FFEF
:02030D00000FDF
:02030E0000AF3E
:02030F00018764
:020310000000EB
:020311000000EA
:020312000000E9
:020313000000E8
:020314000000E7
:020315000000E6
:020316000000E5
:020317000000E4
:020318000000E3
:020319000000E2
:02031A000000E1
:02031B000000E0
:02031C000000DF
:02031D000000DE
:02031E000000DD
:02031F000000DC
:02032000000FCC
:02032100007F5B
:02032200007F5A
:02032300019F38
:02032400019F37
:02032500019F36
:02032600019F35
:02032700019F34
:02032800019F33
:02032900019F32
:02032A00019F31
:02032B00019F30
:02032C00019F2F
:02032D00005F6F
:02032E00005F6E
:02032F00018744
:020330000000CB
:020331000000CA
:020332000000C9
:020333000000C8
:020334000000C7
:020335000000C6
:020336000000C5
:020337000000C4
:020338000000C3
:020339000000C2
:02033A000000C1
:02033B000000C0
:02033C000000BF
:02033D000000BE
:02033E000000BD
:02033F000000BC
:02034000007F3C
:02034100005F5B
:02034200005F5A
:02034300005F59
:02034400009F18
:02034500009E18
:02034600016E46
:02034700004E66
:02034800004E65
:0203490001EEC3
:02034A00010EA2
:02034B00010EA1
:02034C00010EA0
:02034D0001EEBF
:02034E0001EEBE
:02034F000104A7
:020350000000AB
:020351000000AA
:020352000000A9
:020353000000A8
:020354000000A7
:020355000000A6
:020356000000A5
:020357000000A4
:020358000000A3
:020359000000A2
:02035A000000A1
:02035B000000A0
:02035C0000009F
:02035D0000009E
:02035E0000009D
:02035F0000009C
:02036000004E4D
:02036100004E4C
:0203620001EEAA
:0203630001EEA9
:0203640000FE99
:02036500016E27
:0203660000FE97
:02036700016E25
:0203680001DEB4
:0203690001EEA3
:02036A00004E43
:02036B00004E42
:02036C00004E41
:02036D00004E40
:02036E00004E3F
:02036F00011E6D
:0203700000008B
:0203710000008A
:02037200000089
:02037300000088
:02037400000087
:02037500000086
:02037600000085
:02037700000084
:02037800000083
:02037900000082
:02037A00000081
:02037B00000080
:02037C0000007F
:02037D0000007E
:02037E0000007D
:02037F0000007C
:02038000004E2D
:02038100004E2C
:02038200004E2B
:0203830001EE89
:02038400004E29
:0203850001EE87
:0203860001EE86
:0203870001EE85
:02038800004E25
:0203890001EE83
:02038A0001EE82
:02038B00008EE2
:02038C00007EF1
:02038D00012E3F
:02038E00012D3F
:02038F00005E0E
:0203900000006B
:0203910000006A
:02039200000069
:02039300000068
:02039400000067
:02039500000066
:02039600000065
:02039700000064
:02039800000063
:02039900000062
:02039A00000061
:02039B00000060
:02039C0000005F
:02039D0000005E
:02039E0000005D
:02039F0000005C
:0203A000008CCF
:0203A10000FC5E
:0203A20000FC5D
:0203A30000FC5C
:0203A400012D29
:0203A50001DD78
:0203A60001CD87
:0203A70001DC77
:0203A80000FC57
:0203A90001ACA5
:0203AA0000ACA5
:0203AB00009CB4
:0203AC00009CB3
:0203AD00009CB2
:0203AE00004C01
:0203AF00011A31
:0203B00000004B
:0203B10000004A
:0203B200000049
:0203B300000048
:0203B400000047
:0203B500000046
:0203B600000045
:0203B700000044
:0203B800000043
:0203B900000042
:0203BA00000041
:0203BB00000040
:0203BC0000003F
:0203BD0000003E
:0203BE0000003D
:0203BF0000003C
:0203C000008DAE
:0203C100004DED
:0203C200003DFC
:0203C300003CFC
:0203C400003CFB
:0203C500019C99
:0203C600019C98
:0203C700012C07
:0203C800019C96
:0203C90000EC46
:0203CA0000EC45
:0203CB0001AC83
:0203CC0000EC43
:0203CD0001AC81
:0203CE0001AC80
:0203CF0000A28A
:0203D00000002B
:0203D10000002A
:0203D200000029
:0203D300000028
:0203D400000027
:0203D500000026
:0203D600000025
:0203D700000024
:0203D800000023
:0203D900000022
:0203DA00000021
:0203DB00000020
:0203DC0000001F
:0203DD0000001E
:0203DE0000001D
:0203DF0000001C
:0203E00000FC1F
:0203E10000FC1E
:0203E200002CED
:0203E300013CDB
:0203E400007C9B
:0203E50001AC69
:0203E60001AC68
:0203E700004CC8
:0203E800009C77
:0203E900009C76
:0203EA0001EC24
:0203EB0001EC23
:0203EC0001EC22
:0203ED0001EC21
:0203EE00009C71
:0203EF00008983
:0203F00000000B
:0203F10000000A
:0203F200000009
:0203F300000008
:0203F400000007
:0203F500000006
:0203F600000005
:0203F700000004
:0203F800000003
:0203F900000002
:0203FA00000001
:0203FB00000000
:0203FC000000FF
:0203FD000000FE
:0203FE000000FD
:0203FF000000FC
:02040000009C5E
:0204010000AC4D
:02040200004CAC
:02040300004CAB
:0204040001AC49
:0204050000EC09
:0204060000EC08
:0204070000EC07
:0204080000EC06
:02040900007C75
:02040A0000EC04
:02040B0000EC03
:02040C0001AC41
:02040D0001AC40
:02040E0001AC3F
:02040F0001C723
:020410000000EA
:020411000000E9
:020412000000E8
:020413000000E7
:020414000000E6
:020415000000E5
:020416000000E4
:020417000000E3
:020418000000E2
:020419000000E1
:02041A000000E0
:02041B000000DF
:02041C000000DE
:02041D000000DD
:02041E000000DC
:02041F000000DB
:0204200000EDED
:02042100017D5B
:02042200003D9B
:02042300009D3A
:0204240001AD28
:0204250001AE26
:02042600007E56
:0204270001EEE4
:02042800004E84
:02042900004E83
:02042A0001EEE1
:02042B0001EEE0
:02042C0001EEDF
:02042D0001EEDE
:02042E0001EEDD
:02042F00003299
:020430000000CA
:020431000000C9
:020432000000C8
:020433000000C7
:020434000000C6
:020435000000C5
:020436000000C4
:020437000000C3
:020438000000C2
:020439000000C1
:02043A000000C0
:02043B000000BF
:02043C000000BE
:02043D000000BD
:02043E000000BC
:02043F000000BB
:02044000012E8B
:02044100012E8A
:0204420001BEF9
:0204430001BEF8
:02044400008E28
:02044500013E76
:0204460000DDD7
:0204470001DED4
:02044800015E53
:02044900016E42
:02044A0000DED2
:02044B0000DED1
:02044C0000DED0
:02044D00016E3E
:02044E00016D3E
:02044F00001C8F
:020450000000AA
:020451000000A9
:020452000000A8
:020453000000A7
:020454000000A6
:020455000000A5
:020456000000A4
:020457000000A3
:020458000000A2
:020459000000A1
:02045A000000A0
:02045B0000009F
:02045C0000009E
:02045D0000009D
:02045E0000009C
:02045F0000009B
:0204600000FD9D
:02046100013D5B
:02046200015D3A
:02046300015D39
:02046400015D38
:0204650001DDB7
:0204660001DDB6
:02046700017D15
:02046800017D14
:02046900017C14
:02046A0000ECA4
:02046B00019CF2
:02046C00007C12
:02046D00013C50
:02046E00007C10
:02046F00011A70
:0204700000008A
:02047100000089
:02047200000088
:02047300000087
:02047400000086
:02047500000085
:02047600000084
:02047700000083
:02047800000082
:02047900000081
:02047A00000080
:02047B0000007F
:02047C0000007E
:02047D0000007D
:02047E0000007C
:02047F0000007B
:0204800001ACCD
:02048100013C3C
:02048200012C4B
:02048300013C3A
:0204840000ADC9
:02048500003E37
:02048600015E15
:0204870000EE85
:02048800008EE4
:02048900008EE3
:02048A0001DE91
:02048B0001DE90
:02048C0001DE8F
:02048D0001DE8E
:02048E00008EDE
:02048F0000D398
:0204900000006A
:02049100000069
:02049200000068
:02049300000067
:02049400000066
:02049500000065
:02049600000064
:02049700000063
:02049800000062
:02049900000061
:02049A00000060
:02049B0000005F
:02049C0000005E
:02049D0000005D
:02049E0000005C
:02049F0000005B
:0204A000015DFC
:0204A100008DCC
:0204A200001D3B
:0204A300017CDA
:0204A400003D19
:0204A500003D18
:0204A600003C18
:0204A70000ED66
:0204A800003C16
:0204A900008DC4
:0204AA00017DD2
:0204AB00004D02
:0204AC00017CD1
:0204AD00008CC1
:0204AE0000EC60
:0204AF00012426
:0204B00000004A
:0204B100000049
:0204B200000048
:0204B300000047
:0204B400000046
:0204B500000045
:0204B600000044
:0204B700000043
:0204B800000042
:0204B900000041
:0204BA00000040
:0204BB0000003F
:0204BC0000003E
:0204BD0000003D
:0204BE0000003C
:0204BF0000003B
:0204C000004CEE
:0204C100009C9D
:0204C200009B9D
:0204C30001AB8B
:0204C400014BEA
:0204C50001AB89
:0204C600013BF8
:0204C70001CB67
:0204C80000AB87
:0204C900011B15
:0204CA00011A15
:0204CB00005AD5
:0204CC0000FA34
:0204CD00008AA3
:0204CE00008AA2
:0204CF0000A883
:0204D00000002A
:0204D100000029
:0204D200000028
:0204D300000027
:0204D400000026
:0204D500000025
:0204D600000024
:0204D700000023
:0204D800000022
:0204D900000021
:0204DA00000020
:0204DB0000001F
:0204DC0000001E
:0204DD0000001D
:0204DE0000001C
:0204DF0000001B
:0204E00001D940
:0204E10001D93F
:0204E20001D93E
:0204E30001D93D
:0204E40001D93C
:0204E50001D93B
:0204E60001D93A
:0204E70001D939
:0204E8000019F9
:0204E9000019F8
:0204EA000019F7
:0204EB000019F6
:0204EC000019F5
:0204ED000019F4
:0204EE000019F3
:0204EF00010109
:0204F00000000A
:0204F100000009
:0204F200000008
:0204F300000007
:0204F400000006
:0204F500000005
:0204F600000004
:0204F700000003
:0204F800000002
:0204F900000001
:0204FA00000000
:0204FB000000FF
:0204FC000000FE
:0204FD000000FD
:0204FE000000FC
:0204FF000000FB
:020500000019E0
:020501000019DF
:020502000039BE
:020503000019DD
:020504000039BC
:020505000019DB
:020506000038BB
:02050700017879
:02050800017878
:02050900017877
:02050A00017876
:02050B00017875
:02050C00017874
:02050D00017873
:02050E000138B2
:02050F0000B337
:020510000000E9
:020511000000E8
:020512000000E7
:020513000000E6
:020514000000E5
:020515000000E4
:020516000000E3
:020517000000E2
:020518000000E1
:020519000000E0
:02051A000000DF
:02051B000000DE
:02051C000000DD
:02051D000000DC
:02051E000000DB
:02051F000000DA
:02052000017860
:0205210000F9DF
:0205220001E9ED
:0205230001F9DC
:020524000019BC
:02052500016A69
:02052600003A99
:02052700005A78
:0205280001FBD5
:0205290001AB24
:02052A0001AB23
:02052B0000AB23
:02052C0000EBE2
:02052D0000ECE0
:02052E0001AC1E
:02052F00017A4F
:020530000000C9
:020531000000C8
:020532000000C7
:020533000000C6
:020534000000C5
:020535000000C4
:020536000000C3
:020537000000C2
:020538000000C1
:020539000000C0
:02053A000000BF
:02053B000000BE
:02053C000000BD
:02053D000000BC
:02053E000000BB
:02053F000000BA
:0205400000AC0D
:02054100002C8C
:02054200002C8B
:0205430001AC09
:0205440001AC08
:0205450001AC07
:0205460001AC06
:0205470001AC05
:0205480000FCB5
:02054900013C73
:02054A00013C72
:02054B00013C71
:02054C0000ECC1
:02054D0000ECC0
:02054E0000ACFF
:02054F00002A80
:020550000000A9
:020551000000A8
:020552000000A7
:020553000000A6
:020554000000A5
:020555000000A4
:020556000000A3
:020557000000A2
:020558000000A1
:020559000000A0
:02055A0000009F
:02055B0000009E
:02055C0000009D
:02055D0000009C
:02055E0000009B
:02055F0000009A
:0205600000ACED
:0205610000ECAC
:0205620000EDAA
:02056300013D58
:0205640000FD98
:0205650000FD97
:0205660001FD95
:02056700013D54
:0205680000FD94
:0205690001CDC2
:02056A00013D51
:02056B00013D50
:02056C00000D80
:02056D00000D7F
:02056E0001DDAD
:02056F00019DEC
:02057000000089
:02057100000088
:02057200000087
:02057300000086
:02057400000085
:02057500000084
:02057600000083
:02057700000082
:02057800000081
:02057900000080
:02057A0000007F
:02057B0000007E
:02057C0000007D
:02057D0000007C
:02057E0000007B
:02057F0000007A
:02058000013E3A
:02058100013E39
:02058200013E38
:02058300019ED7
:02058400005E17
:0205850001DE95
:0205860001DE94
:0205870001CEA3
:0205880001EE82
:02058900004E22
:02058A00004E21
:02058B00016FFE
:02058C0001FF6D
:02058D00000F5D
:02058E0000AFBC
:02058F00012049
:02059000000069
:02059100000068
:02059200000067
:02059300000066
:02059400000065
:02059500000064
:02059600000063
:02059700000062
:02059800000061
:02059900000060
:02059A0000005F
:02059B0000005E
:02059C0000005D
:02059D0000005C
:02059E0000005B
:02059F0000005A
:0205A000000F4A
:0205A100000F49
:0205A200007FD8
:0205A300007FD7
:0205A400007FD6
:0205A500007FD5
:0205A600007FD4
:0205A700019FB2
:0205A800019FB1
:0205A900019FB0
:0205AA00019FAF
:0205AB00019FAE
:0205AC00019FAD
:0205AD00019FAC
:0205AE00019FAB
:0205AF000187C2
:0205B000000049
:0205B100000048
:0205B200000047
:0205B300000046
:0205B400000045
:0205B500000044
:0205B600000043
:0205B700000042
:0205B800000041
:0205B900000040
:0205BA0000003F
:0205BB0000003E
:0205BC0000003D
:0205BD0000003C
:0205BE0000003B
:0205BF0000003A
:0205C000000F2A
:0205C100005FD9
:0205C20000AF88
:0205C30000AF87
:0205C400009E97
:0205C500016EC5
:0205C60001EE44
:0205C700004EE4
:0205C800004EE3
:0205C90001EE41
:0205CA00005ED1
:0205CB00005ED0
:0205CC0001EE3E
:0205CD0001EE3D
:0205CE0001EE3C
:0205CF0001C465
:0205D000000029
:0205D100000028
:0205D200000027
:0205D300000026
:0205D400000025
:0205D500000024
:0205D600000023
:0205D700000022
:0205D800000021
:0205D900000020
:0205DA0000001F
:0205DB0000001E
:0205DC0000001D
:0205DD0000001C
:0205DE0000001B
:0205DF0000001A
:0205E000004ECB
:0205E100004ECA
:0205E200004EC9
:0205E30001EE27
:0205E40001EE26
:0205E50001EE25
:0205E600016EA4
:0205E70001EE23
:0205E800016EA2
:0205E90001EE21
:0205EA00004EC1
:0205EB00004EC0
:0205EC00004EBF
:0205ED00004EBE
:0205EE00004EBD
:0205EF00010405
:0205F000000009
:0205F100000008
:0205F200000007
:0205F300000006
:0205F400000005
:0205F500000004
:0205F600000003
:0205F700000002
:0205F800000001
:0205F900000000
:0205FA000000FF
:0205FB000000FE
:0205FC000000FD
:0205FD000000FC
:0205FE000000FB
:0205FF000000FA
:02060000004EAA
:02060100004EA9
:02060200004EA8
:02060300004EA7
:02060400004EA6
:02060500004EA5
:02060600004EA4
:02060700004EA3
:02060800004EA2
:0206090001EE00
:02060A0001BE2F
:02060B00012EBE
:02060C0001DE0D
:02060D0000DE0D
:02060E00015D8C
:02060F0000A841
:020610000000E8
:020611000000E7
:020612000000E6
:020613000000E5
:020614000000E4
:020615000000E3
:020616000000E2
:020617000000E1
:020618000000E0
:020619000000DF
:02061A000000DE
:02061B000000DD
:02061C000000DC
:02061D000000DB
:02061E000000DA
:02061F000000D9
:02062000015C7B
:02062100003C9B
:02062200019C39
:02062300012CA8
:02062400012DA6
:02062500017D55
:0206260000BD15
:0206270001CC04
:02062800008C44
:0206290000FCD3
:02062A0001AC21
:02062B00009C31
:02062C00004C80
:02062D00009C2F
:02062E00004C7E
:02062F00011AAE
:020630000000C8
:020631000000C7
:020632000000C6
:020633000000C5
:020634000000C4
:020635000000C3
:020636000000C2
:020637000000C1
:020638000000C0
:020639000000BF
:02063A000000BE
:02063B000000BD
:02063C000000BC
:02063D000000BB
:02063E000000BA
:02063F000000B9
:02064000008D2B
:02064100017D39
:02064200017C39
:02064300008C29
:02064400019C17
:02064500007C37
:02064600013C75
:0206470000FCB5
:02064800013C73
:02064900013C72
:02064A00002C82
:02064B00002C81
:02064C00002C80
:02064D00004C5F
:02064E00004C5E
:02064F0001AAFE
:020650000000A8
:020651000000A7
:020652000000A6
:020653000000A5
:020654000000A4
:020655000000A3
:020656000000A2
:020657000000A1
:020658000000A0
:0206590000009F
:02065A0000009E
:02065B0000009D
:02065C0000009C
:02065D0000009B
:02065E0000009A
:02065F00000099
:0206600001ACEB
:0206610001ACEA
:0206620001ACE9
:0206630001ACE8
:0206640000ACE8
:0206650000FC97
:0206660000ACE6
:0206670000ACE5
:02066800009CF4
:0206690000ACE3
:02066A0001ECA1
:02066B0001ECA0
:02066C0001EC9F
:02066D00009CEF
:02066E00009CEE
:02066F0001AADE
:02067000000088
:02067100000087
:02067200000086
:02067300000085
:02067400000084
:02067500000083
:02067600000082
:02067700000081
:02067800000080
:0206790000007F
:02067A0000007E
:02067B0000007D
:02067C0000007C
:02067D0000007B
:02067E0000007A
:02067F00000079
:02068000004C2C
:02068100004C2B
:02068200002C4A
:02068300013C38
:02068400007CF8
:0206850001ACC6
:0206860001ACC5
:02068700019CD4
:02068800019CD3
:02068900019CD2
:02068A0001ACC1
:02068B0001ACC0
:02068C00013C2F
:02068D00013C2E
:02068E00013C2D
:02068F000173F5
:02069000000068
:02069100000067
:02069200000066
:02069300000065
:02069400000064
:02069500000063
:02069600000062
:02069700000061
:02069800000060
:0206990000005F
:02069A0000005E
:02069B0000005D
:02069C0000005C
:02069D0000005B
:02069E0000005A
:02069F00000059
:0206A000007CDC
:0206A100003C1B
:0206A200014D08
:0206A30001DD77
:0206A400011E35
:0206A50001EE64
:0206A60000EE64
:0206A70001BE92
:0206A800004E02
:0206A900004E01
:0206AA00004E00
:0206AB0001EE5E
:0206AC0001EE5D
:0206AD0001CE7C
:0206AE00005EEC
:0206AF000153F5
:0206B000000048
:0206B100000047
:0206B200000046
:0206B300000045
:0206B400000044
:0206B500000043
:0206B600000042
:0206B700000041
:0206B800000040
:0206B90000003F
:0206BA0000003E
:0206BB0000003D
:0206BC0000003C
:0206BD0000003B
:0206BE0000003A
:0206BF00000039
:0206C00001BE79
:0206C100004EE9
:0206C200004EE8
:0206C300004EE7
:0206C40001EE45
:0206C500008EA5
:0206C600008EA4
:0206C70000DE53
:0206C800016EC1
:0206C90001EE40
:0206CA00007EB0
:0206CB00007EAF
:0206CC00007EAE
:0206CD0000DE4D
:0206CE00013DEC
:0206CF00019395
:0206D000000028
:0206D100000027
:0206D200000026
:0206D300000025
:0206D400000024
:0206D500000023
:0206D600000022
:0206D700000021
:0206D800000020
:0206D90000001F
:0206DA0000001E
:0206DB0000001D
:0206DC0000001C
:0206DD0000001B
:0206DE0000001A
:0206DF00000019
:0206E00001CD4A
:0206E10001CD49
:0206E200013DD8
:0206E300001DF8
:0206E400015DB6
:0206E500015DB5
:0206E600003DD5
:0206E700004DC4
:0206E800013DD2
:0206E900003DD2
:0206EA00003DD1
:0206EB00003CD1
:0206EC00014CBF
:0206ED0000DD2E
:0206EE00015DAC
:0206EF00007594
:0206F000000008
:0206F100000007
:0206F200000006
:0206F300000005
:0206F400000004
:0206F500000003
:0206F600000002
:0206F700000001
:0206F800000000
:0206F9000000FF
:0206FA000000FE
:0206FB000000FD
:0206FC000000FC
:0206FD000000FB
:0206FE000000FA
:0206FF000000F9
:02070000003DBA
:0207010001FDF8
:0207020001FDF7
:0207030000DD17
:0207040000FDF6
:02070500013EB3
:0207060000EE03
:0207070001BE31
:0207080001BE30
:0207090001BE2F
:02070A0001BE2E
:02070B0001BE2D
:02070C00012EBC
:02070D0001DE0B
:02070E0001DE0A
:02070F0000D315
:020710000000E7
:020711000000E6
:020712000000E5
:020713000000E4
:020714000000E3
:020715000000E2
:020716000000E1
:020717000000E0
:020718000000DF
:020719000000DE
:02071A000000DD
:02071B000000DC
:02071C000000DB
:02071D000000DA
:02071E000000D9
:02071F000000D8
:0207200000DEF9
:02072100015D78
:0207220000FDD8
:02072300003D97
:02072400017D55
:02072500017D54
:02072600017D53
:02072700017D52
:02072800017D51
:02072900004D81
:02072A00003D90
:02072B00003D8F
:02072C00004D7E
:02072D00004C7E
:02072E00008C3D
:02072F0001AE19
:020730000000C7
:020731000000C6
:020732000000C5
:020733000000C4
:020734000000C3
:020735000000C2
:020736000000C1
:020737000000C0
:020738000000BF
:020739000000BE
:02073A000000BD
:02073B000000BC
:02073C000000BB
:02073D000000BA
:02073E000000B9
:02073F000000B8
:02074000007C3B
:02074100004C6A
:02074200004C69
:02074300009C18
:0207440001EBC7
:02074500014B66
:0207460000FBB6
:02074700013B74
:02074800004B64
:0207490000AB03
:02074A00011B91
:02074B00011A91
:02074C0000FAB1
:02074D00017A2F
:02074E00008A1F
:02074F0000A800
:020750000000A7
:020751000000A6
:020752000000A5
:020753000000A4
:020754000000A3
:020755000000A2
:020756000000A1
:020757000000A0
:0207580000009F
:0207590000009E
:02075A0000009D
:02075B0000009C
:02075C0000009B
:02075D0000009A
:02075E00000099
:02075F00000098
:02076000008A0D
:02076100008A0C
:02076200008A0B
:02076300008A0A
:02076400008A09
:02076500008909
:0207660001DAB6
:02076700008907
:0207680001D9B5
:0207690001D9B4
:02076A00001974
:02076B00001973
:02076C00001972
:02076D00001971
:02076E00001970
:02076F00010186
:02077000000087
:02077100000086
:02077200000085
:02077300000084
:02077400000083
:02077500000082
:02077600000081
:02077700000080
:0207780000007F
:0207790000007E
:02077A0000007D
:02077B0000007C
:02077C0000007B
:02077D0000007A
:02077E00000079
:02077F00000078
:0207800000195E
:0207810000195D
:0207820000195C
:0207830000195B
:0207840000195A
:02078500001959
:02078600001859
:020787000178F7
:020788000178F6
:020789000178F5
:02078A000178F4
:02078B000178F3
:02078C000178F2
:02078D000178F1
:02078E000178F0
:02078F0000B3B5
:02079000000067
:02079100000066
:02079200000065
:02079300000064
:02079400000063
:02079500000062
:02079600000061
:02079700000060
:0207980000005F
:0207990000005E
:02079A0000005D
:02079B0000005C
:02079C0000005B
:02079D0000005A
:02079E00000059
:02079F00000058
:0207A0000178DE
:0207A10000F95D
:0207A20001E96B
:0207A30000193B
:0207A400001A39
:0207A500003A18
:0207A600005AF7
:0207A700005BF5
:0207A800004B04
:0207A90001ABA2
:0207AA0001ABA1
:0207AB0000ABA1
:0207AC0000AC9F
:0207AD0001AC9D
:0207AE0001AC9C
:0207AF00017ACD
:0207B000000047
:0207B100000046
:0207B200000045
:0207B300000044
:0207B400000043
:0207B500000042
:0207B600000041
:0207B700000040
:0207B80000003F
:0207B90000003E
:0207BA0000003D
:0207BB0000003C
:0207BC0000003B
:0207BD0000003A
:0207BE00000039
:0207BF00000038
:0207C00001AC8A
:0207C10000AC8A
:0207C20000AC89
:0207C30001AC87
:0207C40001AC86
:0207C50001AB86
:0207C60000EB46
:0207C70000EC44
:0207C80001AC82
:0207C90001AC81
:0207CA0001AC80
:0207CB0001AC7F
:0207CC00014CDE
:0207CD00013CED
:0207CE0000CC5D
:0207CF00014CDB
:0207D000000027
:0207D100000026
:0207D200000025
:0207D300000024
:0207D400000023
:0207D500000022
:0207D600000021
:0207D700000020
:0207D80000001F
:0207D90000001E
:0207DA0000001D
:0207DB0000001C
:0207DC0000001B
:0207DD0000001A
:0207DE00000019
:0207DF00000018
:0207E000013CDA
:0207E100019C79
:0207E20000AC69
:0207E30000EC28
:0207E400014DC5
:0207E500015DB4
:0207E600015DB3
:0207E70001DD32
:0207E800009D72
:0207E90000DD31
:0207EA00011DEF
:0207EB00009D6F
:0207EC00013DCD
:0207ED00013DCC
:0207EE0001AD5B
:0207EF00011AED
:0207F000000007
:0207F100000006
:0207F200000005
:0207F300000004
:0207F400000003
:0207F500000002
:0207F600000001
:0207F700000000
:0207F8000000FF
:0207F9000000FE
:0207FA000000FD
:0207FB000000FC
:0207FC000000FB
:0207FD000000FA
:0207FE000000F9
:0207FF000000F8
:0208000001AD48
:02080100000DE8
:0208020001DE15
:02080300013EB4
:02080400005E94
:0208050001CE22
:0208060001CE21
:02080700013EB0
:0208080001EEFF
:02080900004E9F
:02080A00004E9E
:02080B00016F7B
:02080C00009F4B
:02080D00000FDA
:02080E00005F89
:02080F0001AA3C
:020810000000E6
:020811000000E5
:020812000000E4
:020813000000E3
:020814000000E2
:020815000000E1
:020816000000E0
:020817000000DF
:020818000000DE
:020819000000DD
:02081A000000DC
:02081B000000DB
:02081C000000DA
:02081D000000D9
:02081E000000D8
:02081F000000D7
:02082000000FC7
:02082100000FC6
:02082200000FC5
:02082300000FC4
:02082400000FC3
:02082500007F52
:02082600007F51
:02082700007F50
:02082800007F4F
:02082900019F2D
:02082A00019F2C
:02082B00019F2B
:02082C00007F4B
:02082D00007F4A
:02082E00007F49
:02082F000120A6
:020830000000C6
:020831000000C5
:020832000000C4
:020833000000C3
:020834000000C2
:020835000000C1
:020836000000C0
:020837000000BF
:020838000000BE
:020839000000BD
:02083A000000BC
:02083B000000BB
:02083C000000BA
:02083D000000B9
:02083E000000B8
:02083F000000B7
:02084000000FA7
:0208410000AF06
:02084200000FA5
:02084300009F14
:02084400009E14
:02084500016E42
:02084600004E62
:02084700004E61
:0208480001EEBF
:02084900005E4F
:02084A0001EEBD
:02084B00003E6D
:02084C00005E4C
:02084D0001EEBA
:02084E0001EEB9
:02084F000104A2
:020850000000A6
:020851000000A5
:020852000000A4
:020853000000A3
:020854000000A2
:020855000000A1
:020856000000A0
:0208570000009F
:0208580000009E
:0208590000009D
:02085A0000009C
:02085B0000009B
:02085C0000009A
:02085D00000099
:02085E00000098
:02085F00000097
:02086000004E48
:02086100004E47
:02086200004E46
:02086300004E45
:0208640001EEA3
:02086500004E43
:0208660001EEA1
:0208670001EEA0
:0208680001EE9F
:0208690001EE9E
:02086A00004E3E
:02086B00004E3D
:02086C00004E3C
:02086D00004E3B
:02086E00004E3A
:02086F00010482
:02087000000086
:02087100000085
:02087200000084
:02087300000083
:02087400000082
:02087500000081
:02087600000080
:0208770000007F
:0208780000007E
:0208790000007D
:02087A0000007C
:02087B0000007B
:02087C0000007A
:02087D00000079
:02087E00000078
:02087F00000077
:02088000004E28
:02088100004E27
:0208820001EE85
:0208830001EE84
:0208840001EE83
:0208850001EE82
:02088600010E61
:0208870001EE80
:0208880001EE7F
:0208890001EE7E
:02088A0001EE7D
:02088B0001EE7C
:02088C0001CE9B
:02088D00013D2B
:02088E00013D2A
:02088F00001C4B
:02089000000066
:02089100000065
:02089200000064
:02089300000063
:02089400000062
:02089500000061
:02089600000060
:0208970000005F
:0208980000005E
:0208990000005D
:02089A0000005C
:02089B0000005B
:02089C0000005A
:02089D00000059
:02089E00000058
:02089F00000057
:0208A000008DC9
:0208A10001ED67
:0208A200004C08
:0208A300003C17
:0208A400019CB5
:0208A500008DC4
:0208A600015DF2
:0208A70000BD92
:0208A800015CF1
:0208A90000EC61
:0208AA0000FC50
:0208AB00004CFF
:0208AC00004CFE
:0208AD00004CFD
:0208AE00004CFC
:0208AF0001AE98
:0208B000000046
:0208B100000045
:0208B200000044
:0208B300000043
:0208B400000042
:0208B500000041
:0208B600000040
:0208B70000003F
:0208B80000003E
:0208B90000003D
:0208BA0000003C
:0208BB0000003B
:0208BC0000003A
:0208BD00000039
:0208BE00000038
:0208BF00000037
:0208C000003CFA
:0208C100008CA9
:0208C200008CA8
:0208C300019C96
:0208C40001AC85
:0208C50000EC45
:0208C600007CB4
:0208C700007CB3
:0208C800007CB2
:0208C900004CE1
:0208CA00004CE0
:0208CB00004CDF
:0208CC00004CDE
:0208CD00004CDD
:0208CE00004CDC
:0208CF0000899E
:0208D000000026
:0208D100000025
:0208D200000024
:0208D300000023
:0208D400000022
:0208D500000021
:0208D600000020
:0208D70000001F
:0208D80000001E
:0208D90000001D
:0208DA0000001C
:0208DB0000001B
:0208DC0000001A
:0208DD00000019
:0208DE00000018
:0208DF00000017
:0208E00001EC29
:0208E100009C79
:0208E200004CC8
:0208E30000AC67
:0208E40000AC66
:0208E50001AC64
:0208E60001AC63
:0208E700002CE3
:0208E800002CE2
:0208E90000AC61
:0208EA0001AC5F
:0208EB0000AC5F
:0208EC00004CBE
:0208ED00004CBD
:0208EE00004CBC
:0208EF000124E2
:0208F000000006
:0208F100000005
:0208F200000004
:0208F300000003
:0208F400000002
:0208F500000001
:0208F600000000
:0208F7000000FF
:0208F8000000FE
:0208F9000000FD
:0208FA000000FC
:0208FB000000FB
:0208FC000000FA
:0208FD000000F9
:0208FE000000F8
:0208FF000000F7
:02090000004CA9
:02090100007C78
:02090200007C77
:02090300007C76
:02090400007C75
:0209050001AC43
:02090600019C52
:0209070000EC02
:0209080000EC01
:0209090000EC00
:02090A0000ECFF
:02090B0001AC3D
:02090C00007C6D
:02090D00013CAB
:02090E00007C6B
:02090F00017372
:020910000000E5
:020911000000E4
:020912000000E3
:020913000000E2
:020914000000E1
:020915000000E0
:020916000000DF
:020917000000DE
:020918000000DD
:020919000000DC
:02091A000000DB
:02091B000000DA
:02091C000000D9
:02091D000000D8
:02091E000000D7
:02091F000000D6
:02092000019C38
:0209210000AC28
:02092200014D85
:0209230001FDD4
:02092400008E43
:0209250000EEE2
:0209260001BE10
:0209270001BE0F
:0209280001BE0E
:0209290001BE0D
:02092A0001BE0C
:02092B0001EEDB
:02092C0001EEDA
:02092D00005E6A
:02092E0001CEF8
:02092F0001A520
:020930000000C5
:020931000000C4
:020932000000C3
:020933000000C2
:020934000000C1
:020935000000C0
:020936000000BF
:020937000000BE
:020938000000BD
:020939000000BC
:02093A000000BB
:02093B000000BA
:02093C000000B9
:02093D000000B8
:02093E000000B7
:02093F000000B6
:0209400001EEC6
:0209410001BEF5
:0209420001BEF4
:0209430001EEC3
:0209440001EEC2
:02094500005E52
:02094600007E31
:02094700007E30
:02094800016E3E
:02094900013E6D
:02094A00013E6C
:02094B00013E6B
:02094C00013E6A
:02094D00013E69
:02094E00013E68
:02094F00011392
:020950000000A5
:020951000000A4
:020952000000A3
:020953000000A2
:020954000000A1
:020955000000A0
:0209560000009F
:0209570000009E
:0209580000009D
:0209590000009C
:02095A0000009B
:02095B0000009A
:02095C00000099
:02095D00000098
:02095E00000097
:02095F00000096
:02096000013E56
:02096100015D36
:02096200008D06
:0209630000FD95
:02096400009DF4
:02096500003D53
:0209660000FD92
:02096700013D50
:0209680001DDAF
:02096900013D4E
:02096A0000FD8E
:02096B00013D4C
:02096C0001FD8B
:02096D0001FD8A
:02096E0001ED99
:02096F00005E28
:02097000000085
:02097100000084
:02097200000083
:02097300000082
:02097400000081
:02097500000080
:0209760000007F
:0209770000007E
:0209780000007D
:0209790000007C
:02097A0000007B
:02097B0000007A
:02097C00000079
:02097D00000078
:02097E00000077
:02097F00000076
:02098000015E16
:02098100015E15
:0209820001EE84
:02098300007EF4
:02098400007EF3
:02098500007EF2
:02098600012E40
:0209870001BEAF
:02098800004E1F
:02098900004E1E
:02098A00004E1D
:02098B00004E1C
:02098C0001BEAA
:02098D00012E39
:02098E00008ED9
:02098F0000A7BF
:02099000000065
:02099100000064
:02099200000063
:02099300000062
:02099400000061
:02099500000060
:0209960000005F
:0209970000005E
:0209980000005D
:0209990000005C
:02099A0000005B
:02099B0000005A
:02099C00000059
:02099D00000058
:02099E00000057
:02099F00000056
:0209A000013D17
:0209A100009DB7
:0209A200009DB6
:0209A300003D15
:0209A400003D14
:0209A500003D13
:0209A600004D02
:0209A700009DB1
:0209A800015DEF
:0209A900015DEE
:0209AA00015DED
:0209AB00003D0D
:0209AC00003D0C
:0209AD00003D0B
:0209AE00004CFB
:0209AF000063E3
:0209B000000045
:0209B100000044
:0209B200000043
:0209B300000042
:0209B400000041
:0209B500000040
:0209B60000003F
:0209B70000003E
:0209B80000003D
:0209B90000003C
:0209BA0000003B
:0209BB0000003A
:0209BC00000039
:0209BD00000038
:0209BE00000037
:0209BF00000036
:0209C00000EC49
:0209C10001AC87
:0209C200004CE7
:0209C300009C96
:0209C400009C95
:0209C50001EB44
:0209C600014BE3
:0209C700014BE2
:0209C80001AB81
:0209C900004BE1
:0209CA0000AB80
:0209CB00016ABF
:0209CC0001FA2E
:0209CD00017AAD
:0209CE00017AAC
:0209CF000043E3
:0209D000000025
:0209D100000024
:0209D200000023
:0209D300000022
:0209D400000021
:0209D500000020
:0209D60000001F
:0209D70000001E
:0209D80000001D
:0209D90000001C
:0209DA0000001B
:0209DB0000001A
:0209DC00000019
:0209DD00000018
:0209DE00000017
:0209DF00000016
:0209E000008A8B
:0209E100008A8A
:0209E200008A89
:0209E300008A88
:0209E400008A87
:0209E500008A86
:0209E600008A85
:0209E700008A84
:0209E800008984
:0209E90001D932
:0209EA0001D931
:0209EB0001D930
:0209EC0001D92F
:0209ED000019EF
:0209EE000019EE
:0209EF00010104
:0209F000000005
:0209F100000004
:0209F200000003
:0209F300000002
:0209F400000001
:0209F500000000
:0209F6000000FF
:0209F7000000FE
:0209F8000000FD
:0209F9000000FC
:0209FA000000FB
:0209FB000000FA
:0209FC000000F9
:0209FD000000F8
:0209FE000000F7
:0209FF000000F6
:020A00000019DB
:020A01000019DA
:020A02000019D9
:020A03000019D8
:020A04000019D7
:020A05000019D6
:020A06000018D6
:020A0700017874
:020A0800017873
:020A0900017872
:020A0A00017871
:020A0B00017870
:020A0C0001786F
:020A0D0001786E
:020A0E0001786D
:020A0F0000B332
:020A10000000E4
:020A11000000E3
:020A12000000E2
:020A13000000E1
:020A14000000E0
:020A15000000DF
:020A16000000DE
:020A17000000DD
:020A18000000DC
:020A19000000DB
:020A1A000000DA
:020A1B000000D9
:020A1C000000D8
:020A1D000000D7
:020A1E000000D6
:020A1F000000D5
:020A200001389B
:020A210000F8DB
:020A220000F9D9
:020A2300017957
:020A2400016A65
:020A2500005A75
:020A260001FAD3
:020A270001FBD1
:020A280000EBE1
:020A290001AB1F
:020A2A00007B4F
:020A2B0001AB1D
:020A2C0000AC1C
:020A2D0001AC1A
:020A2E0001AC19
:020A2F00017A4A
:020A30000000C4
:020A31000000C3
:020A32000000C2
:020A33000000C1
:020A34000000C0
:020A35000000BF
:020A36000000BE
:020A37000000BD
:020A38000000BC
:020A39000000BB
:020A3A000000BA
:020A3B000000B9
:020A3C000000B8
:020A3D000000B7
:020A3E000000B6
:020A3F000000B5
:020A400001AC07
:020A410001AC06
:020A420001AB06
:020A430000EBC6
:020A440000EBC5
:020A450000EBC4
:020A460000AB03
:020A470000AB02
:020A480000ECC0
:020A490001ACFE
:020A4A0001ACFD
:020A4B0001ACFC
:020A4C0001ACFB
:020A4D0000FCAB
:020A4E0001ACF9
:020A4F00018F15
:020A50000000A4
:020A51000000A3
:020A52000000A2
:020A53000000A1
:020A54000000A0
:020A550000009F
:020A560000009E
:020A570000009D
:020A580000009C
:020A590000009B
:020A5A0000009A
:020A5B00000099
:020A5C00000098
:020A5D00000097
:020A5E00000096
:020A5F00000095
:020A6000013C57
:020A6100013C56
:020A6200012C65
:020A6300019CF4
:020A640000ACE4
:020A650000ADE2
:020A6600015C31
:020A6700014D3F
:020A6800013D4E
:020A690001FD8D
:020A6A0000DDAD
:020A6B0000DDAC
:020A6C00009DEB
:020A6D00013D49
:020A6E00013D48
:020A6F000193F1
:020A7000000084
:020A7100000083
:020A7200000082
:020A7300000081
:020A7400000080
:020A750000007F
:020A760000007E
:020A770000007D
:020A780000007C
:020A790000007B
:020A7A0000007A
:020A7B00000079
:020A7C00000078
:020A7D00000077
:020A7E00000076
:020A7F00000075
:020A8000013D36
:020A8100013D35
:020A8200013D34
:020A8300000E63
:020A8400013E31
:020A8500013E30
:020A8600013E2F
:020A8700005E0F
:020A880001EE7D
:020A890001EE7C
:020A8A00004E1C
:020A8B0001EE7A
:020A8C00016FF8
:020A8D00009FC8
:020A8E00009FC7
:020A8F00019FC5
:020A9000000064
:020A9100000063
:020A9200000062
:020A9300000061
:020A9400000060
:020A950000005F
:020A960000005E
:020A970000005D
:020A980000005C
:020A990000005B
:020A9A0000005A
:020A9B00000059
:020A9C00000058
:020A9D00000057
:020A9E00000056
:020A9F00000055
:020AA000000F45
:020AA10000AFA4
:020AA200005FF3
:020AA300007FD2
:020AA400007FD1
:020AA500007FD0
:020AA600007FCF
:020AA700007FCE
:020AA800007FCD
:020AA900007FCC
:020AAA00007FCB
:020AAB00007FCA
:020AAC00007FC9
:020AAD00000F38
:020AAE00000F37
:020AAF00012024
:020AB000000044
:020AB100000043
:020AB200000042
:020AB300000041
:020AB400000040
:020AB50000003F
:020AB60000003E
:020AB70000003D
:020AB80000003C
:020AB90000003B
:020ABA0000003A
:020ABB00000039
:020ABC00000038
:020ABD00000037
:020ABE00000036
:020ABF00000035
:020AC000000F25
:020AC100000F24
:020AC20001FF32
:020AC300009E93
:020AC400016EC1
:020AC50001EE40
:020AC600004EE0
:020AC700004EDF
:020AC80001EE3D
:020AC900005ECD
:020ACA0001EE3B
:020ACB00003EEB
:020ACC00005ECA
:020ACD0001EE38
:020ACE0001EE37
:020ACF00019E86
:020AD000000024
:020AD100000023
:020AD200000022
:020AD300000021
:020AD400000020
:020AD50000001F
:020AD60000001E
:020AD70000001D
:020AD80000001C
:020AD90000001B
:020ADA0000001A
:020ADB00000019
:020ADC00000018
:020ADD00000017
:020ADE00000016
:020ADF00000015
:020AE00001BE55
:020AE10001BE54
:020AE20001EE23
:020AE30001EE22
:020AE400004EC2
:020AE50001EE20
:020AE600004EC0
:020AE70001EE1E
:020AE80001EE1D
:020AE900004EBD
:020AEA00004EBC
:020AEB00004EBB
:020AEC00004EBA
:020AED00004EB9
:020AEE00004EB8
:020AEF00010400
:020AF000000004
:020AF100000003
:020AF200000002
:020AF300000001
:020AF400000000
:020AF5000000FF
:020AF6000000FE
:020AF7000000FD
:020AF8000000FC
:020AF9000000FB
:020AFA000000FA
:020AFB000000F9
:020AFC000000F8
:020AFD000000F7
:020AFE000000F6
:020AFF000000F5
:020B0000004EA5
:020B010001EE03
:020B020001EE02
:020B030001EE01
:020B040001EE00
:020B050001EEFF
:020B060001EEFE
:020B070001EEFD
:020B080001EEFC
:020B0900013EAB
:020B0A00005E8B
:020B0B00005E8A
:020B0C0001CE18
:020B0D0001CE17
:020B0E00013DA7
:020B0F00019350
:020B10000000E3
:020B11000000E2
:020B12000000E1
:020B13000000E0
:020B14000000DF
:020B15000000DE
:020B16000000DD
:020B17000000DC
:020B18000000DB
:020B19000000DA
:020B1A000000D9
:020B1B000000D8
:020B1C000000D7
:020B1D000000D6
:020B1E000000D5
:020B1F000000D4
:020B2000015D75
:020B2100008D45
:020B2200015D73
:020B2300004C84
:020B2400003D92
:020B2500017D50
:020B2600015D6F
:020B270000BD0F
:020B280000BD0E
:020B290001DCED
:020B2A00002C9D
:020B2B00004C7C
:020B2C00004C7B
:020B2D00004C7A
:020B2E0001AC18
:020B2F00011AA9
:020B30000000C3
:020B31000000C2
:020B32000000C1
:020B33000000C0
:020B34000000BF
:020B35000000BE
:020B36000000BD
:020B37000000BC
:020B38000000BB
:020B39000000BA
:020B3A000000B9
:020B3B000000B8
:020B3C000000B7
:020B3D000000B6
:020B3E000000B5
:020B3F000000B4
:020B400000ECC7
:020B410000ECC6
:020B4200007C35
:020B4300013C73
:020B4400013C72
:020B4500007C32
:020B460000ECC1
:020B470000ECC0
:020B480001ACFE
:020B4900004C5E
:020B4A00004C5D
:020B4B00004C5C
:020B4C00004C5B
:020B4D00004C5A
:020B4E00009C09
:020B4F0000891B
:020B50000000A3
:020B51000000A2
:020B52000000A1
:020B53000000A0
:020B540000009F
:020B550000009E
:020B560000009D
:020B570000009C
:020B580000009B
:020B590000009A
:020B5A00000099
:020B5B00000098
:020B5C00000097
:020B5D00000096
:020B5E00000095
:020B5F00000094
:020B6000009CF7
:020B6100004C46
:020B6200004C45
:020B6300004C44
:020B640000ACE3
:020B650000ACE2
:020B660000ACE1
:020B670000ECA0
:020B680001ACDE
:020B6900002C5E
:020B6A0000FC8D
:020B6B0000FC8C
:020B6C00002C5B
:020B6D00007C0A
:020B6E00007C09
:020B6F0001C7BC
:020B7000000083
:020B7100000082
:020B7200000081
:020B7300000080
:020B740000007F
:020B750000007E
:020B760000007D
:020B770000007C
:020B780000007B
:020B790000007A
:020B7A00000079
:020B7B00000078
:020B7C00000077
:020B7D00000076
:020B7E00000075
:020B7F00000074
:020B800001ACC6
:020B810001ACC5
:020B8200019CD4
:020B8300019CD3
:020B8400019CD2
:020B8500019CD1
:020B8600008CE1
:020B8700008CE0
:020B8800008CDF
:020B8900008DDD
:020B8A00017DEB
:020B8B0001DC8B
:020B8C0001ACBA
:020B8D0001ACB9
:020B8E0001ACB8
:020B8F00011A49
:020B9000000063
:020B9100000062
:020B9200000061
:020B9300000060
:020B940000005F
:020B950000005E
:020B960000005D
:020B970000005C
:020B980000005B
:020B990000005A
:020B9A00000059
:020B9B00000058
:020B9C00000057
:020B9D00000056
:020B9E00000055
:020B9F00000054
:020BA00000ED66
:020BA100015DF4
:020BA200003D14
:020BA300001D33
:020BA40001EE60
:020BA500008EC0
:020BA600008EBF
:020BA700013D0E
:020BA80001DE6C
:020BA900013E0B
:020BAA00007ECB
:020BAB00007ECA
:020BAC00019EA8
:020BAD00005EE8
:020BAE00019EA6
:020BAF0000390B
:020BB000000043
:020BB100000042
:020BB200000041
:020BB300000040
:020BB40000003F
:020BB50000003E
:020BB60000003D
:020BB70000003C
:020BB80000003B
:020BB90000003A
:020BBA00000039
:020BBB00000038
:020BBC00000037
:020BBD00000036
:020BBE00000035
:020BBF00000034
:020BC000012E04
:020BC100012E03
:020BC200008EA3
:020BC300012E01
:020BC400008EA1
:020BC500007EB0
:020BC600013EEE
:020BC700007EAE
:020BC80000DE4D
:020BC900013EEB
:020BCA00013EEA
:020BCB00013EE9
:020BCC00013EE8
:020BCD00013EE7
:020BCE00019E86
:020BCF000039EB
:020BD000000023
:020BD100000022
:020BD200000021
:020BD300000020
:020BD40000001F
:020BD50000001E
:020BD60000001D
:020BD70000001C
:020BD80000001B
:020BD90000001A
:020BDA00000019
:020BDB00000018
:020BDC00000017
:020BDD00000016
:020BDE00000015
:020BDF00000014
:020BE000007E95
:020BE10000EE24
:020BE20000EE23
:020BE300012DE2
:020BE40001CD41
:020BE500009D71
:020BE60001DD2F
:020BE70001FD0E
:020BE800000DFE
:020BE900013DCC
:020BEA00001DEC
:020BEB00001DEB
:020BEC00013DC9
:020BED0000FD09
:020BEE00008D78
:020BEF00005EA6
:020BF000000003
:020BF100000002
:020BF200000001
:020BF300000000
:020BF4000000FF
:020BF5000000FE
:020BF6000000FD
:020BF7000000FC
:020BF8000000FB
:020BF9000000FA
:020BFA000000F9
:020BFB000000F8
:020BFC000000F7
:020BFD000000F6
:020BFE000000F5
:020BFF000000F4
:020C0000015E93
:020C010001EE02
:020C020000DE12
:020C0300007E71
:020C0400007E70
:020C050000EEFF
:020C060001BE2D
:020C070001EEFC
:020C080001EEFB
:020C090001EEFA
:020C0A0001EEF9
:020C0B0001EEF8
:020C0C0001EEF7
:020C0D00012EB6
:020C0E0000EEF6
:020C0F0000A73C
:020C10000000E2
:020C11000000E1
:020C12000000E0
:020C13000000DF
:020C14000000DE
:020C15000000DD
:020C16000000DC
:020C17000000DB
:020C18000000DA
:020C19000000D9
:020C1A000000D8
:020C1B000000D7
:020C1C000000D6
:020C1D000000D5
:020C1E000000D4
:020C1F000000D3
:020C2000009D35
:020C2100019D33
:020C2200009D33
:020C2300000DC2
:020C2400000DC1
:020C2500000DC0
:020C2600000DBF
:020C2700015D6D
:020C2800013D8C
:020C290000FDCC
:020C2A00013D8A
:020C2B00009D2A
:020C2C00000DB9
:020C2D00003D88
:020C2E00003C88
:020C2F00006360
:020C30000000C2
:020C31000000C1
:020C32000000C0
:020C33000000BF
:020C34000000BE
:020C35000000BD
:020C36000000BC
:020C37000000BB
:020C38000000BA
:020C39000000B9
:020C3A000000B8
:020C3B000000B7
:020C3C000000B6
:020C3D000000B5
:020C3E000000B4
:020C3F000000B3
:020C400000ECC6
:020C4100007C35
:020C4200004C64
:020C4300009C13
:020C4400009C12
:020C4500016B41
:020C460001AB00
:020C4700006B40
:020C4800014B5E
:020C4900004B5E
:020C4A0001CBDC
:020C4B00016A3C
:020C4C0001FAAB
:020C4D00017A2A
:020C4E00017A29
:020C4F0001970B
:020C50000000A2
:020C51000000A1
:020C52000000A0
:020C530000009F
:020C540000009E
:020C550000009D
:020C560000009C
:020C570000009B
:020C580000009A
:020C5900000099
:020C5A00000098
:020C5B00000097
:020C5C00000096
:020C5D00000095
:020C5E00000094
:020C5F00000093
:020C6000017A17
:020C6100003A57
:020C6200003A56
:020C630001CAC4
:020C640001CAC3
:020C6500008A03
:020C6600008A02
:020C6700008A01
:020C6800008A00
:020C6900008AFF
:020C6A00008AFE
:020C6B000089FE
:020C6C0001D9AC
:020C6D0001D9AB
:020C6E0001D9AA
:020C6F00011D65
:020C7000000082
:020C7100000081
:020C7200000080
:020C730000007F
:020C740000007E
:020C750000007D
:020C760000007C
:020C770000007B
:020C780000007A
:020C7900000079
:020C7A00000078
:020C7B00000077
:020C7C00000076
:020C7D00000075
:020C7E00000074
:020C7F00000073
:020C8000001959
:020C8100001958
:020C8200001957
:020C8300001956
:020C8400001955
:020C8500001954
:020C8600001854
:020C87000178F2
:020C88000178F1
:020C89000178F0
:020C8A000178EF
:020C8B000178EE
:020C8C000178ED
:020C8D000178EC
:020C8E000178EB
:020C8F0000B3B0
:020C9000000062
:020C9100000061
:020C9200000060
:020C930000005F
:020C940000005E
:020C950000005D
:020C960000005C
:020C970000005B
:020C980000005A
:020C9900000059
:020C9A00000058
:020C9B00000057
:020C9C00000056
:020C9D00000055
:020C9E00000054
:020C9F00000053
:020CA00000F85A
:020CA10000F859
:020CA200014906
:020CA3000179D5
:020CA400016AE3
:020CA500005AF3
:020CA60001FB50
:020CA700007BD0
:020CA80001AB9E
:020CA900007BCE
:020CAA0001AB9C
:020CAB0000AC9B
:020CAC0001AC99
:020CAD0001AC98
:020CAE0001AB98
:020CAF0001251D
:020CB000000042
:020CB100000041
:020CB200000040
:020CB30000003F
:020CB40000003E
:020CB50000003D
:020CB60000003C
:020CB70000003B
:020CB80000003A
:020CB900000039
:020CBA00000038
:020CBB00000037
:020CBC00000036
:020CBD00000035
:020CBE00000034
:020CBF00000033
:020CC000005BD7
:020CC10000EB46
:020CC20000EB45
:020CC30000AB84
:020CC40000EB43
:020CC50000EB42
:020CC60000EB41
:020CC70000EB40
:020CC80000EC3E
:020CC90001AC7C
:020CCA0000AC7C
:020CCB0000AC7B
:020CCC0000FC2A
:020CCD0000FC29
:020CCE00013CE7
:020CCF0000140F
:020CD000000022
:020CD100000021
:020CD200000020
:020CD30000001F
:020CD40000001E
:020CD50000001D
:020CD60000001C
:020CD70000001B
:020CD80000001A
:020CD900000019
:020CDA00000018
:020CDB00000017
:020CDC00000016
:020CDD00000015
:020CDE00000014
:020CDF00000013
:020CE000013CD5
:020CE100013CD4
:020CE200012CE3
:020CE300019C72
:020CE400019C71
:020CE50000AC61
:020CE60000EC20
:020CE700003CCF
:020CE800014DBC
:020CE90001FD0B
:020CEA00009D6B
:020CEB0000DD2A
:020CEC00004DB9
:020CED00013DC7
:020CEE00013DC6
:020CEF00019D65
:020CF000000002
:020CF100000001
:020CF200000000
:020CF3000000FF
:020CF4000000FE
:020CF5000000FD
:020CF6000000FC
:020CF7000000FB
:020CF8000000FA
:020CF9000000F9
:020CFA000000F8
:020CFB000000F7
:020CFC000000F6
:020CFD000000F5
:020CFE000000F4
:020CFF000000F3
:020D000001ED03
:020D010001DD12
:020D0200013DB1
:020D0300000EE0
:020D040001EEFE
:020D0500013EAD
:020D0600013EAC
:020D0700005E8C
:020D080001CE1A
:020D090001EEF9
:020D0A00004E99
:020D0B00004E98
:020D0C0001EEF6
:020D0D0001EEF5
:020D0E00016F73
:020D0F00019F42
:020D10000000E1
:020D11000000E0
:020D12000000DF
:020D13000000DE
:020D14000000DD
:020D15000000DC
:020D16000000DB
:020D17000000DA
:020D18000000D9
:020D19000000D8
:020D1A000000D7
:020D1B000000D6
:020D1C000000D5
:020D1D000000D4
:020D1E000000D3
:020D1F000000D2
:020D2000000FC2
:020D2100000FC1
:020D2200005F70
:020D230000AF1F
:020D240000AF1E
:020D250000AF1D
:020D2600007F4C
:020D2700000FBB
:020D2800000FBA
:020D2900000FB9
:020D2A00000FB8
:020D2B00000FB7
:020D2C00000FB6
:020D2D00000FB5
:020D2E00000FB4
:020D2F0001AA17
:020D30000000C1
:020D31000000C0
:020D32000000BF
:020D33000000BE
:020D34000000BD
:020D35000000BC
:020D36000000BB
:020D37000000BA
:020D38000000B9
:020D39000000B8
:020D3A000000B7
:020D3B000000B6
:020D3C000000B5
:020D3D000000B4
:020D3E000000B3
:020D3F000000B2
:020D4000002F82
:020D410001FFB0
:020D420001FFAF
:020D430001FEAF
:020D440000FEAF
:020D450001EEBD
:020D460001EEBC
:020D470001EEBB
:020D480001EEBA
:020D4900005E4A
:020D4A0001CED8
:020D4B00019E07
:020D4C00008E17
:020D4D00008E16
:020D4E00008E15
:020D4F00019E03
:020D50000000A1
:020D51000000A0
:020D520000009F
:020D530000009E
:020D540000009D
:020D550000009C
:020D560000009B
:020D570000009A
:020D5800000099
:020D5900000098
:020D5A00000097
:020D5B00000096
:020D5C00000095
:020D5D00000094
:020D5E00000093
:020D5F00000092
:020D600001BED2
:020D610001BED1
:020D620001BED0
:020D630001EE9F
:020D6400004E3F
:020D650001EE9D
:020D660001EE9C
:020D670001EE9B
:020D680001EE9A
:020D6900004E3A
:020D6A00004E39
:020D6B00004E38
:020D6C00004E37
:020D6D00004E36
:020D6E0001EE94
:020D6F00019EE3
:020D7000000081
:020D7100000080
:020D720000007F
:020D730000007E
:020D740000007D
:020D750000007C
:020D760000007B
:020D770000007A
:020D7800000079
:020D7900000078
:020D7A00000077
:020D7B00000076
:020D7C00000075
:020D7D00000074
:020D7E00000073
:020D7F00000072
:020D800001EE82
:020D810001EE81
:020D820001EE80
:020D8300012E3F
:020D8400008EDF
:020D8500008EDE
:020D8600008EDD
:020D8700012E3B
:020D8800008EDB
:020D890001DE89
:020D8A00005E09
:020D8B00005E08
:020D8C00005E07
:020D8D0001DE85
:020D8E0001DE84
:020D8F00019EC3
:020D9000000061
:020D9100000060
:020D920000005F
:020D930000005E
:020D940000005D
:020D950000005C
:020D960000005B
:020D970000005A
:020D9800000059
:020D9900000058
:020D9A00000057
:020D9B00000056
:020D9C00000055
:020D9D00000054
:020D9E00000053
:020D9F00000052
:020DA00001DD73
:020DA10001CD82
:020DA20001CD81
:020DA300004C02
:020DA400003C11
:020DA500008DBF
:020DA60001DD6D
:020DA700009DAD
:020DA80001CD7B
:020DA90001DC6B
:020DAA00007CCB
:020DAB0000AC9A
:020DAC00004CF9
:020DAD00004CF8
:020DAE00004CF7
:020DAF0001241D
:020DB000000041
:020DB100000040
:020DB20000003F
:020DB30000003E
:020DB40000003D
:020DB50000003C
:020DB60000003B
:020DB70000003A
:020DB800000039
:020DB900000038
:020DBA00000037
:020DBB00000036
:020DBC00000035
:020DBD00000034
:020DBE00000033
:020DBF00000032
:020DC000007CB5
:020DC100013CF3
:020DC200013CF2
:020DC30000FC32
:020DC400002C01
:020DC500004CE0
:020DC600004CDF
:020DC70001AC7D
:020DC80001AC7C
:020DC900004CDC
:020DCA00004CDB
:020DCB00004CDA
:020DCC00004CD9
:020DCD00004CD8
:020DCE00004CD7
:020DCF000124FD
:020DD000000021
:020DD100000020
:020DD20000001F
:020DD30000001E
:020DD40000001D
:020DD50000001C
:020DD60000001B
:020DD70000001A
:020DD800000019
:020DD900000018
:020DDA00000017
:020DDB00000016
:020DDC00000015
:020DDD00000014
:020DDE00000013
:020DDF00000012
:020DE000004CC5
:020DE100004CC4
:020DE20000EC23
:020DE300004CC2
:020DE400002CE1
:020DE500004CC0
:020DE600007D8E
:020DE700003CCE
:020DE80000EC1D
:020DE900007C8C
:020DEA00012CDA
:020DEB00019C69
:020DEC0000EC19
:020DED0000EC18
:020DEE0000EC17
:020DEF0001AE53
:020DF000000001
:020DF100000000
:020DF2000000FF
:020DF3000000FE
:020DF4000000FD
:020DF5000000FC
:020DF6000000FB
:020DF7000000FA
:020DF8000000F9
:020DF9000000F8
:020DFA000000F7
:020DFB000000F6
:020DFC000000F5
:020DFD000000F4
:020DFE000000F3
:020DFF000000F2
:020E0000008C64
:020E0100008C63
:020E0200003CB2
:020E0300003CB1
:020E0400003CB0
:020E0500008C5F
:020E0600008C5E
:020E0700008D5C
:020E0800017D6A
:020E090001DD09
:020E0A0001DD08
:020E0B0001DD07
:020E0C00017D66
:020E0D0001DC06
:020E0E00008C56
:020E0F00014898
:020E10000000E0
:020E11000000DF
:020E12000000DE
:020E13000000DD
:020E14000000DC
:020E15000000DB
:020E16000000DA
:020E17000000D9
:020E18000000D8
:020E19000000D7
:020E1A000000D6
:020E1B000000D5
:020E1C000000D4
:020E1D000000D3
:020E1E000000D2
:020E1F000000D1
:020E2000008D43
:020E2100003D92
:020E2200009D31
:020E230001FDCF
:020E2400013D8E
:020E250001EDDD
:020E260000DDED
:020E2700009D2C
:020E280001DDEA
:020E290001DDE9
:020E2A0001CDF8
:020E2B0001DDE7
:020E2C0001DDE6
:020E2D00013E84
:020E2E00013E83
:020E2F0000A71A
:020E30000000C0
:020E31000000BF
:020E32000000BE
:020E33000000BD
:020E34000000BC
:020E35000000BB
:020E36000000BA
:020E37000000B9
:020E38000000B8
:020E39000000B7
:020E3A000000B6
:020E3B000000B5
:020E3C000000B4
:020E3D000000B3
:020E3E000000B2
:020E3F000000B1
:020E400000EEC2
:020E410000EEC1
:020E4200007E30
:020E4300007E2F
:020E4400007E2E
:020E4500013D6D
:020E460001AEFB
:020E4700013E6A
:020E4800016E39
:020E4900007E29
:020E4A00007E28
:020E4B00007E27
:020E4C00019E05
:020E4D0001DEC4
:020E4E00012E73
:020E4F0000326F
:020E50000000A0
:020E510000009F
:020E520000009E
:020E530000009D
:020E540000009C
:020E550000009B
:020E560000009A
:020E5700000099
:020E5800000098
:020E5900000097
:020E5A00000096
:020E5B00000095
:020E5C00000094
:020E5D00000093
:020E5E00000092
:020E5F00000091
:020E600001BED1
:020E610001BED0
:020E620001BECF
:020E630000EE9F
:020E640001ED9E
:020E650001ADDD
:020E660001CDBC
:020E6700008DFC
:020E6800008DFB
:020E690001ED99
:020E6A00013D48
:020E6B0001ED97
:020E6C00008DF7
:020E6D0000FD86
:020E6E00013D44
:020E6F00001C65
:020E7000000080
:020E710000007F
:020E720000007E
:020E730000007D
:020E740000007C
:020E750000007B
:020E760000007A
:020E7700000079
:020E7800000078
:020E7900000077
:020E7A00000076
:020E7B00000075
:020E7C00000074
:020E7D00000073
:020E7E00000072
:020E7F00000071
:020E800001CDA2
:020E810001DE90
:020E8200013E2F
:020E8300013E2E
:020E8400013E2D
:020E8500007EED
:020E860001DE8B
:020E8700015E0A
:020E8800005E0A
:020E8900005E09
:020E8A00019EC7
:020E8B00003E27
:020E8C00013E25
:020E8D0001EE74
:020E8E0000DD85
:020E8F00019DC3
:020E9000000060
:020E910000005F
:020E920000005E
:020E930000005D
:020E940000005C
:020E950000005B
:020E960000005A
:020E9700000059
:020E9800000058
:020E9900000057
:020E9A00000056
:020E9B00000055
:020E9C00000054
:020E9D00000053
:020E9E00000052
:020E9F00000051
:020EA000011D32
:020EA10000DD72
:020EA20000DD71
:020EA300009DB0
:020EA400000D3F
:020EA500000D3E
:020EA600001D2D
:020EA700013D0B
:020EA80000FD4B
:020EA90001ED59
:020EAA0001CD78
:020EAB00015DE7
:020EAC00003D07
:020EAD00004CF7
:020EAE00003C06
:020EAF000063DE
:020EB000000040
:020EB10000003F
:020EB20000003E
:020EB30000003D
:020EB40000003C
:020EB50000003B
:020EB60000003A
:020EB700000039
:020EB800000038
:020EB900000037
:020EBA00000036
:020EBB00000035
:020EBC00000034
:020EBD00000033
:020EBE00000032
:020EBF00000031
:020EC00000EC44
:020EC10001AC82
:020EC200004CE2
:020EC300009C91
:020EC400016CBF
:020EC500016BBF
:020EC60001AB7E
:020EC70001AB7D
:020EC800006BBD
:020EC90000AB7C
:020ECA00011A0B
:020ECB00005ACB
:020ECC00005ACA
:020ECD00017AA8
:020ECE00017AA7
:020ECF00008F92
:020ED000000020
:020ED10000001F
:020ED20000001E
:020ED30000001D
:020ED40000001C
:020ED50000001B
:020ED60000001A
:020ED700000019
:020ED800000018
:020ED900000017
:020EDA00000016
:020EDB00000015
:020EDC00000014
:020EDD00000013
:020EDE00000012
:020EDF00000011
:020EE000017A95
:020EE100017A94
:020EE200017A93
:020EE300017A92
:020EE40001CA41
:020EE50001CA40
:020EE600008A80
:020EE700008A7F
:020EE800008A7E
:020EE900008A7D
:020EEA00008A7C
:020EEB00008A7B
:020EEC00008A7A
:020EED0000897A
:020EEE0001D928
:020EEF00011DE3
:020EF000000000
:020EF1000000FF
:020EF2000000FE
:020EF3000000FD
:020EF4000000FC
:020EF5000000FB
:020EF6000000FA
:020EF7000000F9
:020EF8000000F8
:020EF9000000F7
:020EFA000000F6
:020EFB000000F5
:020EFC000000F4
:020EFD000000F3
:020EFE000000F2
:020EFF000000F1
:020F000001D915
:020F010001D914
:020F020001D913
:020F03000019D3
:020F04000019D2
:020F05000019D1
:020F06000018D1
:020F070001786F
:020F080001786E
:020F090001786D
:020F0A0001786C
:020F0B0001786B
:020F0C0001786A
:020F0D000138A9
:020F0E000138A8
:020F0F0000B32D
:020F10000000DF
:020F11000000DE
:020F12000000DD
:020F13000000DC
:020F14000000DB
:020F15000000DA
:020F16000000D9
:020F17000000D8
:020F18000000D7
:020F19000000D6
:020F1A000000D5
:020F1B000000D4
:020F1C000000D3
:020F1D000000D2
:020F1E000000D1
:020F1F000000D0
:020F2000013896
:020F210000F9D5
:020F220001E9E3
:020F2300017952
:020F2400016A60
:020F2500003A90
:020F260001FBCD
:020F2700007B4D
:020F2800007B4C
:020F290000AB1B
:020F2A0000ECD9
:020F2B0001AC17
:020F2C0000AC17
:020F2D00013C85
:020F2E0000AC15
:020F2F00017A45
:020F30000000BF
:020F31000000BE
:020F32000000BD
:020F33000000BC
:020F34000000BB
:020F35000000BA
:020F36000000B9
:020F37000000B8
:020F38000000B7
:020F39000000B6
:020F3A000000B5
:020F3B000000B4
:020F3C000000B3
:020F3D000000B2
:020F3E000000B1
:020F3F000000B0
:020F400001AC02
:020F410001AC01
:020F420001AC00
:020F430001ACFF
:020F440001ACFE
:020F450000ACFE
:020F460000ACFD
:020F4700002C7C
:020F4800013C6A
:020F4900013C69
:020F4A00013C68
:020F4B00013C67
:020F4C00013C66
:020F4D00013C65
:020F4E00019C04
:020F4F0000B3ED
:020F500000009F
:020F510000009E
:020F520000009D
:020F530000009C
:020F540000009B
:020F550000009A
:020F5600000099
:020F5700000098
:020F5800000097
:020F5900000096
:020F5A00000095
:020F5B00000094
:020F5C00000093
:020F5D00000092
:020F5E00000091
:020F5F00000090
:020F6000013C52
:020F6100013C51
:020F620000DCB1
:020F630000ACE0
:020F640000ACDF
:020F650000EC9E
:020F6600014C3C
:020F6700014C3B
:020F6800014D39
:020F6900003D49
:020F6A00003D48
:020F6B0001FD86
:020F6C0000DDA6
:020F6D00004D35
:020F6E0001CDB3
:020F6F0000017F
:020F700000007F
:020F710000007E
:020F720000007D
:020F730000007C
:020F740000007B
:020F750000007A
:020F7600000079
:020F7700000078
:020F7800000077
:020F7900000076
:020F7A00000075
:020F7B00000074
:020F7C00000073
:020F7D00000072
:020F7E00000071
:020F7F00000070
:020F8000015D11
:020F810001DD90
:020F8200013D2F
:020F8300000E5E
:020F840001EE7C
:020F8500013E2B
:020F8600013E2A
:020F870001DE89
:020F880001EE78
:020F890001EE77
:020F8A00004E17
:020F8B00004E16
:020F8C00004E15
:020F8D0001EE73
:020F8E0001EF71
:020F8F00019FC0
:020F900000005F
:020F910000005E
:020F920000005D
:020F930000005C
:020F940000005B
:020F950000005A
:020F9600000059
:020F9700000058
:020F9800000057
:020F9900000056
:020F9A00000055
:020F9B00000054
:020F9C00000053
:020F9D00000052
:020F9E00000051
:020F9F00000050
